{
  "_format": "hh-sol-artifact-1",
  "contractName": "BlockArtistry",
  "sourceName": "contracts/BlockArtistry.sol",
  "abi": [
    {
      "inputs": [],
      "stateMutability": "nonpayable",
      "type": "constructor"
    },
    {
      "inputs": [],
      "name": "InvalidShortString",
      "type": "error"
    },
    {
      "inputs": [
        {
          "internalType": "string",
          "name": "str",
          "type": "string"
        }
      ],
      "name": "StringTooLong",
      "type": "error"
    },
    {
      "anonymous": false,
      "inputs": [
        {
          "indexed": true,
          "internalType": "address",
          "name": "owner",
          "type": "address"
        },
        {
          "indexed": true,
          "internalType": "address",
          "name": "approved",
          "type": "address"
        },
        {
          "indexed": true,
          "internalType": "uint256",
          "name": "tokenId",
          "type": "uint256"
        }
      ],
      "name": "Approval",
      "type": "event"
    },
    {
      "anonymous": false,
      "inputs": [
        {
          "indexed": true,
          "internalType": "address",
          "name": "owner",
          "type": "address"
        },
        {
          "indexed": true,
          "internalType": "address",
          "name": "operator",
          "type": "address"
        },
        {
          "indexed": false,
          "internalType": "bool",
          "name": "approved",
          "type": "bool"
        }
      ],
      "name": "ApprovalForAll",
      "type": "event"
    },
    {
      "anonymous": false,
      "inputs": [
        {
          "indexed": false,
          "internalType": "uint256",
          "name": "_fromTokenId",
          "type": "uint256"
        },
        {
          "indexed": false,
          "internalType": "uint256",
          "name": "_toTokenId",
          "type": "uint256"
        }
      ],
      "name": "BatchMetadataUpdate",
      "type": "event"
    },
    {
      "anonymous": false,
      "inputs": [],
      "name": "EIP712DomainChanged",
      "type": "event"
    },
    {
      "anonymous": false,
      "inputs": [
        {
          "indexed": false,
          "internalType": "uint256",
          "name": "_tokenId",
          "type": "uint256"
        }
      ],
      "name": "MetadataUpdate",
      "type": "event"
    },
    {
      "anonymous": false,
      "inputs": [
        {
          "indexed": true,
          "internalType": "address",
          "name": "previousOwner",
          "type": "address"
        },
        {
          "indexed": true,
          "internalType": "address",
          "name": "newOwner",
          "type": "address"
        }
      ],
      "name": "OwnershipTransferred",
      "type": "event"
    },
    {
      "anonymous": false,
      "inputs": [
        {
          "indexed": true,
          "internalType": "address",
          "name": "from",
          "type": "address"
        },
        {
          "indexed": true,
          "internalType": "address",
          "name": "to",
          "type": "address"
        },
        {
          "indexed": true,
          "internalType": "uint256",
          "name": "tokenId",
          "type": "uint256"
        }
      ],
      "name": "Transfer",
      "type": "event"
    },
    {
      "inputs": [
        {
          "internalType": "address",
          "name": "to",
          "type": "address"
        },
        {
          "internalType": "string",
          "name": "partUri",
          "type": "string"
        },
        {
          "internalType": "uint16",
          "name": "partNumber",
          "type": "uint16"
        },
        {
          "internalType": "uint256",
          "name": "tokenId",
          "type": "uint256"
        }
      ],
      "name": "addPart",
      "outputs": [],
      "stateMutability": "nonpayable",
      "type": "function"
    },
    {
      "inputs": [
        {
          "internalType": "address",
          "name": "to",
          "type": "address"
        },
        {
          "internalType": "uint256",
          "name": "tokenId",
          "type": "uint256"
        }
      ],
      "name": "approve",
      "outputs": [],
      "stateMutability": "nonpayable",
      "type": "function"
    },
    {
      "inputs": [
        {
          "internalType": "address",
          "name": "owner",
          "type": "address"
        }
      ],
      "name": "balanceOf",
      "outputs": [
        {
          "internalType": "uint256",
          "name": "",
          "type": "uint256"
        }
      ],
      "stateMutability": "view",
      "type": "function"
    },
    {
      "inputs": [],
      "name": "eip712Domain",
      "outputs": [
        {
          "internalType": "bytes1",
          "name": "fields",
          "type": "bytes1"
        },
        {
          "internalType": "string",
          "name": "name",
          "type": "string"
        },
        {
          "internalType": "string",
          "name": "version",
          "type": "string"
        },
        {
          "internalType": "uint256",
          "name": "chainId",
          "type": "uint256"
        },
        {
          "internalType": "address",
          "name": "verifyingContract",
          "type": "address"
        },
        {
          "internalType": "bytes32",
          "name": "salt",
          "type": "bytes32"
        },
        {
          "internalType": "uint256[]",
          "name": "extensions",
          "type": "uint256[]"
        }
      ],
      "stateMutability": "view",
      "type": "function"
    },
    {
      "inputs": [
        {
          "internalType": "uint256",
          "name": "tokenId",
          "type": "uint256"
        }
      ],
      "name": "getApproved",
      "outputs": [
        {
          "internalType": "address",
          "name": "",
          "type": "address"
        }
      ],
      "stateMutability": "view",
      "type": "function"
    },
    {
      "inputs": [
        {
          "internalType": "uint256",
          "name": "tokenId",
          "type": "uint256"
        }
      ],
      "name": "getTokenDetails",
      "outputs": [
        {
          "components": [
            {
              "internalType": "address",
              "name": "creator",
              "type": "address"
            },
            {
              "internalType": "string",
              "name": "dataTypes",
              "type": "string"
            },
            {
              "internalType": "address[]",
              "name": "contributors",
              "type": "address[]"
            },
            {
              "internalType": "string[]",
              "name": "uriParts",
              "type": "string[]"
            },
            {
              "internalType": "uint16",
              "name": "partsAmount",
              "type": "uint16"
            }
          ],
          "internalType": "struct BlockArtistry.Token",
          "name": "token",
          "type": "tuple"
        }
      ],
      "stateMutability": "view",
      "type": "function"
    },
    {
      "inputs": [
        {
          "internalType": "address",
          "name": "addr",
          "type": "address"
        }
      ],
      "name": "initRewardContract",
      "outputs": [],
      "stateMutability": "nonpayable",
      "type": "function"
    },
    {
      "inputs": [
        {
          "internalType": "address",
          "name": "owner",
          "type": "address"
        },
        {
          "internalType": "address",
          "name": "operator",
          "type": "address"
        }
      ],
      "name": "isApprovedForAll",
      "outputs": [
        {
          "internalType": "bool",
          "name": "",
          "type": "bool"
        }
      ],
      "stateMutability": "view",
      "type": "function"
    },
    {
      "inputs": [],
      "name": "name",
      "outputs": [
        {
          "internalType": "string",
          "name": "",
          "type": "string"
        }
      ],
      "stateMutability": "view",
      "type": "function"
    },
    {
      "inputs": [],
      "name": "owner",
      "outputs": [
        {
          "internalType": "address",
          "name": "",
          "type": "address"
        }
      ],
      "stateMutability": "view",
      "type": "function"
    },
    {
      "inputs": [
        {
          "internalType": "uint256",
          "name": "tokenId",
          "type": "uint256"
        }
      ],
      "name": "ownerOf",
      "outputs": [
        {
          "internalType": "address",
          "name": "",
          "type": "address"
        }
      ],
      "stateMutability": "view",
      "type": "function"
    },
    {
      "inputs": [],
      "name": "renounceOwnership",
      "outputs": [],
      "stateMutability": "nonpayable",
      "type": "function"
    },
    {
      "inputs": [],
      "name": "rewardToken",
      "outputs": [
        {
          "internalType": "contract IRewardToken",
          "name": "",
          "type": "address"
        }
      ],
      "stateMutability": "view",
      "type": "function"
    },
    {
      "inputs": [
        {
          "internalType": "address",
          "name": "to",
          "type": "address"
        },
        {
          "internalType": "string",
          "name": "dataTypes",
          "type": "string"
        },
        {
          "internalType": "string",
          "name": "partUri",
          "type": "string"
        },
        {
          "internalType": "uint16",
          "name": "partsAmount",
          "type": "uint16"
        },
        {
          "internalType": "uint16",
          "name": "partToAdd",
          "type": "uint16"
        }
      ],
      "name": "safeMint",
      "outputs": [],
      "stateMutability": "nonpayable",
      "type": "function"
    },
    {
      "inputs": [
        {
          "internalType": "address",
          "name": "from",
          "type": "address"
        },
        {
          "internalType": "address",
          "name": "to",
          "type": "address"
        },
        {
          "internalType": "uint256",
          "name": "tokenId",
          "type": "uint256"
        }
      ],
      "name": "safeTransferFrom",
      "outputs": [],
      "stateMutability": "nonpayable",
      "type": "function"
    },
    {
      "inputs": [
        {
          "internalType": "address",
          "name": "from",
          "type": "address"
        },
        {
          "internalType": "address",
          "name": "to",
          "type": "address"
        },
        {
          "internalType": "uint256",
          "name": "tokenId",
          "type": "uint256"
        },
        {
          "internalType": "bytes",
          "name": "data",
          "type": "bytes"
        }
      ],
      "name": "safeTransferFrom",
      "outputs": [],
      "stateMutability": "nonpayable",
      "type": "function"
    },
    {
      "inputs": [
        {
          "internalType": "address",
          "name": "operator",
          "type": "address"
        },
        {
          "internalType": "bool",
          "name": "approved",
          "type": "bool"
        }
      ],
      "name": "setApprovalForAll",
      "outputs": [],
      "stateMutability": "nonpayable",
      "type": "function"
    },
    {
      "inputs": [
        {
          "internalType": "bytes4",
          "name": "interfaceId",
          "type": "bytes4"
        }
      ],
      "name": "supportsInterface",
      "outputs": [
        {
          "internalType": "bool",
          "name": "",
          "type": "bool"
        }
      ],
      "stateMutability": "view",
      "type": "function"
    },
    {
      "inputs": [],
      "name": "symbol",
      "outputs": [
        {
          "internalType": "string",
          "name": "",
          "type": "string"
        }
      ],
      "stateMutability": "view",
      "type": "function"
    },
    {
      "inputs": [
        {
          "internalType": "uint256",
          "name": "index",
          "type": "uint256"
        }
      ],
      "name": "tokenByIndex",
      "outputs": [
        {
          "internalType": "uint256",
          "name": "",
          "type": "uint256"
        }
      ],
      "stateMutability": "view",
      "type": "function"
    },
    {
      "inputs": [
        {
          "internalType": "address",
          "name": "owner",
          "type": "address"
        },
        {
          "internalType": "uint256",
          "name": "index",
          "type": "uint256"
        }
      ],
      "name": "tokenOfOwnerByIndex",
      "outputs": [
        {
          "internalType": "uint256",
          "name": "",
          "type": "uint256"
        }
      ],
      "stateMutability": "view",
      "type": "function"
    },
    {
      "inputs": [
        {
          "internalType": "uint256",
          "name": "tokenId",
          "type": "uint256"
        }
      ],
      "name": "tokenURI",
      "outputs": [
        {
          "internalType": "string",
          "name": "",
          "type": "string"
        }
      ],
      "stateMutability": "view",
      "type": "function"
    },
    {
      "inputs": [],
      "name": "totalSupply",
      "outputs": [
        {
          "internalType": "uint256",
          "name": "",
          "type": "uint256"
        }
      ],
      "stateMutability": "view",
      "type": "function"
    },
    {
      "inputs": [
        {
          "internalType": "address",
          "name": "from",
          "type": "address"
        },
        {
          "internalType": "address",
          "name": "to",
          "type": "address"
        },
        {
          "internalType": "uint256",
          "name": "tokenId",
          "type": "uint256"
        }
      ],
      "name": "transferFrom",
      "outputs": [],
      "stateMutability": "nonpayable",
      "type": "function"
    },
    {
      "inputs": [
        {
          "internalType": "address",
          "name": "newOwner",
          "type": "address"
        }
      ],
      "name": "transferOwnership",
      "outputs": [],
      "stateMutability": "nonpayable",
      "type": "function"
    }
  ],
  "bytecode": "0x6101606040523480156200001257600080fd5b506040518060400160405280600e81526020016d426c6f636b20417274697374727960901b815250604051806040016040528060018152602001603160f81b8152506040518060400160405280600e81526020016d426c6f636b20417274697374727960901b815250604051806040016040528060048152602001631090549560e21b8152508160009080519060200190620000b0929190620002b1565b508051620000c6906001906020840190620002b1565b505050620000e3620000dd620001b860201b60201c565b620001bc565b620000fe6008836200020e60201b620013ea1790919060201c565b610120526200011b8160096200020e602090811b620013ea17901c565b61014052815160208084019190912060e052815190820120610100524660a052620001a960e05161010051604080517f8b73c3c69bb8fe3d512ecc4cf759cc79239f7b179b0ffacaa9a75d522b39400f60208201529081019290925260608201524660808201523060a082015260009060c00160405160208183030381529060405280519060200120905090565b60805250503060c0526200040e565b3390565b600780546001600160a01b038381166001600160a01b0319831681179093556040519116919082907f8be0079c531659141344cd1fd0a4f28419497f9722a3daafe3b4186f6b6457e090600090a35050565b60006020835110156200022e57620002268362000262565b90506200025c565b826200024583620002ae60201b620014211760201c565b8151620002569260200190620002b1565b5060ff90505b92915050565b600080829050601f8151111562000299578260405163305a27a960e01b815260040162000290919062000357565b60405180910390fd5b8051620002a682620003af565b179392505050565b90565b828054620002bf90620003d7565b90600052602060002090601f016020900481019282620002e357600085556200032e565b82601f10620002fe57805160ff19168380011785556200032e565b828001600101855582156200032e579182015b828111156200032e57825182559160200191906001019062000311565b506200033c92915062000340565b5090565b5b808211156200033c576000815560010162000341565b600060208083528351808285015260005b81811015620003865785810183015185820160400152820162000368565b8181111562000399576000604083870101525b50601f01601f1916929092016040019392505050565b80516020808301519190811015620003d1576000198160200360031b1b821691505b50919050565b600181811c90821680620003ec57607f821691505b60208210811415620003d157634e487b7160e01b600052602260045260246000fd5b60805160a05160c05160e051610100516101205161014051612de26200045a600039600061101601526000610feb01526000505060005050600050506000505060005050612de26000f3fe608060405234801561001057600080fd5b50600436106101735760003560e01c8063715018a6116100de578063b88d4fde11610097578063e985e9c511610071578063e985e9c514610334578063f0a97c9214610370578063f2fde38b14610383578063f7c618c11461039657600080fd5b8063b88d4fde146102ee578063c1e0372814610301578063c87b56dd1461032157600080fd5b8063715018a61461028c57806382256af81461029457806384b0196e146102a75780638da5cb5b146102c257806395d89b41146102d3578063a22cb465146102db57600080fd5b80632f745c59116101305780632f745c591461021a57806342842e0e1461022d5780634349c337146102405780634f6ccce7146102535780636352211e1461026657806370a082311461027957600080fd5b806301ffc9a71461017857806306fdde03146101a0578063081812fc146101b5578063095ea7b3146101e057806318160ddd146101f557806323b872dd14610207575b600080fd5b61018b6101863660046125ad565b6103a9565b60405190151581526020015b60405180910390f35b6101a86103ba565b6040516101979190612622565b6101c86101c3366004612635565b61044c565b6040516001600160a01b039091168152602001610197565b6101f36101ee36600461266a565b610473565b005b600c545b604051908152602001610197565b6101f3610215366004612694565b61058e565b6101f961022836600461266a565b6105bf565b6101f361023b366004612694565b610655565b6101f361024e36600461278e565b610670565b6101f9610261366004612635565b61098b565b6101c8610274366004612635565b610a1e565b6101f9610287366004612824565b610a7e565b6101f3610b04565b6101f36102a236600461283f565b610b18565b6102af610fdd565b60405161019797969594939291906128a5565b6007546001600160a01b03166101c8565b6101a8611066565b6101f36102e936600461293b565b611075565b6101f36102fc366004612977565b611084565b61031461030f366004612635565b6110bc565b6040516101979190612a48565b6101a861032f366004612635565b611332565b61018b610342366004612af6565b6001600160a01b03918216600090815260056020908152604080832093909416825291909152205460ff1690565b6101f361037e366004612824565b61133d565b6101f3610391366004612824565b611371565b600e546101c8906001600160a01b031681565b60006103b482611424565b92915050565b6060600080546103c990612b29565b80601f01602080910402602001604051908101604052809291908181526020018280546103f590612b29565b80156104425780601f1061041757610100808354040283529160200191610442565b820191906000526020600020905b81548152906001019060200180831161042557829003601f168201915b5050505050905090565b600061045782611449565b506000908152600460205260409020546001600160a01b031690565b600061047e82610a1e565b9050806001600160a01b0316836001600160a01b031614156104f15760405162461bcd60e51b815260206004820152602160248201527f4552433732313a20617070726f76616c20746f2063757272656e74206f776e656044820152603960f91b60648201526084015b60405180910390fd5b336001600160a01b038216148061050d575061050d8133610342565b61057f5760405162461bcd60e51b815260206004820152603d60248201527f4552433732313a20617070726f76652063616c6c6572206973206e6f7420746f60448201527f6b656e206f776e6572206f7220617070726f76656420666f7220616c6c00000060648201526084016104e8565b61058983836114a8565b505050565b6105983382611516565b6105b45760405162461bcd60e51b81526004016104e890612b64565b610589838383611595565b60006105ca83610a7e565b821061062c5760405162461bcd60e51b815260206004820152602b60248201527f455243373231456e756d657261626c653a206f776e657220696e646578206f7560448201526a74206f6620626f756e647360a81b60648201526084016104e8565b506001600160a01b03919091166000908152600a60209081526040808320938352929052205490565b61058983838360405180602001604052806000815250611084565b60008261ffff16118015610689575061fffe8261ffff16105b6106e75760405162461bcd60e51b815260206004820152602960248201527f506172747320616d6f756e742073686f756c6420626520696e2072616e6765206044820152685b313a36353533345d60b81b60648201526084016104e8565b60006106f260125490565b9050610702601280546001019055565b61070c8682611706565b6107168185611720565b60008361ffff1667ffffffffffffffff811115610735576107356126d0565b60405190808252806020026020018201604052801561075e578160200160208202803683370190505b50905060008461ffff1667ffffffffffffffff811115610780576107806126d0565b6040519080825280602002602001820160405280156107b357816020015b606081526020019060019003908161079e5790505b50905085818561ffff16815181106107cd576107cd612bb1565b6020908102919091018101919091526040805160a0810182526001600160a01b038b811682528184018b81529282018690526060820185905261ffff891660808301526013805460018101825560009190915282517f66de8ffda797e3de9c05e8fc57b3bf0ec28a930d40b0d285d93c06501cf6a090600590920291820180546001600160a01b031916919093161782559251805192949193610899937f66de8ffda797e3de9c05e8fc57b3bf0ec28a930d40b0d285d93c06501cf6a0919091019291909101906123f9565b50604082015180516108b591600284019160209091019061247d565b50606082015180516108d19160038401916020909101906124d2565b50608091909101516004909101805461ffff191661ffff909216919091179055601354839060119060009061090890600190612bdd565b81526020810191909152604090810160002091909155600e549051636902622f60e11b81526001600160a01b039091169063d204c45e9061094f908b908a90600401612bf4565b600060405180830381600087803b15801561096957600080fd5b505af115801561097d573d6000803e3d6000fd5b505050505050505050505050565b6000610996600c5490565b82106109f95760405162461bcd60e51b815260206004820152602c60248201527f455243373231456e756d657261626c653a20676c6f62616c20696e646578206f60448201526b7574206f6620626f756e647360a01b60648201526084016104e8565b600c8281548110610a0c57610a0c612bb1565b90600052602060002001549050919050565b6000818152600260205260408120546001600160a01b0316806103b45760405162461bcd60e51b8152602060048201526018602482015277115490cdcc8c4e881a5b9d985b1a59081d1bdad95b88125160421b60448201526064016104e8565b60006001600160a01b038216610ae85760405162461bcd60e51b815260206004820152602960248201527f4552433732313a2061646472657373207a65726f206973206e6f7420612076616044820152683634b21037bbb732b960b91b60648201526084016104e8565b506001600160a01b031660009081526003602052604090205490565b610b0c6117f2565b610b16600061184c565b565b610b206117f2565b6000818152600260205260409020546001600160a01b0316610b7a5760405162461bcd60e51b8152602060048201526013602482015272546f6b656e206964206e6f742065786973742160681b60448201526064016104e8565b81610b8481612c18565b60008381526011602052604081205460138054939650909350909183908110610baf57610baf612bb1565b60009182526020918290206040805160a0810190915260059092020180546001600160a01b031682526001810180549293919291840191610bef90612b29565b80601f0160208091040260200160405190810160405280929190818152602001828054610c1b90612b29565b8015610c685780601f10610c3d57610100808354040283529160200191610c68565b820191906000526020600020905b815481529060010190602001808311610c4b57829003601f168201915b5050505050815260200160028201805480602002602001604051908101604052809291908181526020018280548015610cca57602002820191906000526020600020905b81546001600160a01b03168152600190910190602001808311610cac575b5050505050815260200160038201805480602002602001604051908101604052809291908181526020016000905b82821015610da4578382906000526020600020018054610d1790612b29565b80601f0160208091040260200160405190810160405280929190818152602001828054610d4390612b29565b8015610d905780601f10610d6557610100808354040283529160200191610d90565b820191906000526020600020905b815481529060010190602001808311610d7357829003601f168201915b505050505081526020019060010190610cf8565b505050908252506004919091015461ffff16602091820152604051919250016040516020818303038152906040528051906020012081606001518561ffff1681518110610df357610df3612bb1565b6020026020010151604051602001610e0b9190612c36565b6040516020818303038152906040528051906020012014610e875760405162461bcd60e51b815260206004820152603060248201527f546f6b656e207061727420616c72656164792061646465642c2073656c65637460448201526f103234b33332b932b73a103830b93a1760811b60648201526084016104e8565b8481606001518561ffff1681518110610ea257610ea2612bb1565b60200260200101819052508060138381548110610ec157610ec1612bb1565b600091825260209182902083516005929092020180546001600160a01b0319166001600160a01b039092169190911781558282015180519192610f0c926001850192909101906123f9565b5060408201518051610f2891600284019160209091019061247d565b5060608201518051610f449160038401916020909101906124d2565b50608091909101516004909101805461ffff191661ffff909216919091179055610f6e8386611720565b600e54604051636902622f60e11b81526001600160a01b0390911690819063d204c45e90610fa2908a908a90600401612bf4565b600060405180830381600087803b158015610fbc57600080fd5b505af1158015610fd0573d6000803e3d6000fd5b5050505050505050505050565b6000606080828080836110117f0000000000000000000000000000000000000000000000000000000000000000600861189e565b61103c7f0000000000000000000000000000000000000000000000000000000000000000600961189e565b60408051600080825260208201909252600f60f81b9b939a50919850469750309650945092509050565b6060600180546103c990612b29565b611080338383611942565b5050565b61108e3383611516565b6110aa5760405162461bcd60e51b81526004016104e890612b64565b6110b684848484611a11565b50505050565b6110fb6040518060a0016040528060006001600160a01b03168152602001606081526020016060815260200160608152602001600061ffff1681525090565b600082815260116020526040902054601380548290811061111e5761111e612bb1565b60009182526020918290206040805160a0810190915260059092020180546001600160a01b03168252600181018054929391929184019161115e90612b29565b80601f016020809104026020016040519081016040528092919081815260200182805461118a90612b29565b80156111d75780601f106111ac576101008083540402835291602001916111d7565b820191906000526020600020905b8154815290600101906020018083116111ba57829003601f168201915b505050505081526020016002820180548060200260200160405190810160405280929190818152602001828054801561123957602002820191906000526020600020905b81546001600160a01b0316815260019091019060200180831161121b575b5050505050815260200160038201805480602002602001604051908101604052809291908181526020016000905b8282101561131357838290600052602060002001805461128690612b29565b80601f01602080910402602001604051908101604052809291908181526020018280546112b290612b29565b80156112ff5780601f106112d4576101008083540402835291602001916112ff565b820191906000526020600020905b8154815290600101906020018083116112e257829003601f168201915b505050505081526020019060010190611267565b505050908252506004919091015461ffff166020909101529392505050565b60606103b482611a44565b6113456117f2565b600f80546001600160a01b039092166001600160a01b03199283168117909155600e8054909216179055565b6113796117f2565b6001600160a01b0381166113de5760405162461bcd60e51b815260206004820152602660248201527f4f776e61626c653a206e6577206f776e657220697320746865207a65726f206160448201526564647265737360d01b60648201526084016104e8565b6113e78161184c565b50565b6000602083511015611406576113ff83611b4d565b90506103b4565b8282815161141792602001906123f9565b5060ff90506103b4565b90565b60006001600160e01b0319821663780e9d6360e01b14806103b457506103b482611b8b565b6000818152600260205260409020546001600160a01b03166113e75760405162461bcd60e51b8152602060048201526018602482015277115490cdcc8c4e881a5b9d985b1a59081d1bdad95b88125160421b60448201526064016104e8565b600081815260046020526040902080546001600160a01b0319166001600160a01b03841690811790915581906114dd82610a1e565b6001600160a01b03167f8c5be1e5ebec7d5bd14f71427d1e84f3dd0314c0f7b2291e5b200ac8c7c3b92560405160405180910390a45050565b60008061152283610a1e565b9050806001600160a01b0316846001600160a01b0316148061156957506001600160a01b0380821660009081526005602090815260408083209388168352929052205460ff165b8061158d5750836001600160a01b03166115828461044c565b6001600160a01b0316145b949350505050565b826001600160a01b03166115a882610a1e565b6001600160a01b0316146115ce5760405162461bcd60e51b81526004016104e890612c52565b6001600160a01b0382166116305760405162461bcd60e51b8152602060048201526024808201527f4552433732313a207472616e7366657220746f20746865207a65726f206164646044820152637265737360e01b60648201526084016104e8565b61163d8383836001611bb0565b826001600160a01b031661165082610a1e565b6001600160a01b0316146116765760405162461bcd60e51b81526004016104e890612c52565b600081815260046020908152604080832080546001600160a01b03199081169091556001600160a01b0387811680865260038552838620805460001901905590871680865283862080546001019055868652600290945282852080549092168417909155905184937fddf252ad1be2c89b69c2b068fc378daa952ba7f163c4a11628f55a4df523b3ef91a4505050565b611080828260405180602001604052806000815250611bbc565b6000828152600260205260409020546001600160a01b031661179b5760405162461bcd60e51b815260206004820152602e60248201527f45524337323155524953746f726167653a2055524920736574206f66206e6f6e60448201526d32bc34b9ba32b73a103a37b5b2b760911b60648201526084016104e8565b600082815260066020908152604090912082516117ba928401906123f9565b506040518281527ff8e1a15aba9398e019f0b49df1a4fde98ee17ae345cb5f6b5e2c27f5033e8ce79060200160405180910390a15050565b6007546001600160a01b03163314610b165760405162461bcd60e51b815260206004820181905260248201527f4f776e61626c653a2063616c6c6572206973206e6f7420746865206f776e657260448201526064016104e8565b600780546001600160a01b038381166001600160a01b0319831681179093556040519116919082907f8be0079c531659141344cd1fd0a4f28419497f9722a3daafe3b4186f6b6457e090600090a35050565b606060ff83146118b1576113ff83611bef565b8180546118bd90612b29565b80601f01602080910402602001604051908101604052809291908181526020018280546118e990612b29565b80156119365780601f1061190b57610100808354040283529160200191611936565b820191906000526020600020905b81548152906001019060200180831161191957829003601f168201915b505050505090506103b4565b816001600160a01b0316836001600160a01b031614156119a45760405162461bcd60e51b815260206004820152601960248201527f4552433732313a20617070726f766520746f2063616c6c65720000000000000060448201526064016104e8565b6001600160a01b03838116600081815260056020908152604080832094871680845294825291829020805460ff191686151590811790915591519182527f17307eab39ab6107e8899845ad3d59bd9653f200f220920489ca2b5937696c31910160405180910390a3505050565b611a1c848484611595565b611a2884848484611c2e565b6110b65760405162461bcd60e51b81526004016104e890612c97565b6060611a4f82611449565b60008281526006602052604081208054611a6890612b29565b80601f0160208091040260200160405190810160405280929190818152602001828054611a9490612b29565b8015611ae15780601f10611ab657610100808354040283529160200191611ae1565b820191906000526020600020905b815481529060010190602001808311611ac457829003601f168201915b505050505090506000611aff60408051602081019091526000815290565b9050805160001415611b12575092915050565b815115611b44578082604051602001611b2c929190612ce9565b60405160208183030381529060405292505050919050565b61158d84611d3b565b600080829050601f81511115611b78578260405163305a27a960e01b81526004016104e89190612622565b8051611b8382612d18565b179392505050565b60006001600160e01b03198216632483248360e11b14806103b457506103b482611daf565b6110b684848484611dff565b611bc68383611f33565b611bd36000848484611c2e565b6105895760405162461bcd60e51b81526004016104e890612c97565b60606000611bfc836120cc565b604080516020808252818301909252919250600091906020820181803683375050509182525060208101929092525090565b60006001600160a01b0384163b15611d3057604051630a85bd0160e11b81526001600160a01b0385169063150b7a0290611c72903390899088908890600401612d3c565b602060405180830381600087803b158015611c8c57600080fd5b505af1925050508015611cbc575060408051601f3d908101601f19168201909252611cb991810190612d79565b60015b611d16573d808015611cea576040519150601f19603f3d011682016040523d82523d6000602084013e611cef565b606091505b508051611d0e5760405162461bcd60e51b81526004016104e890612c97565b805181602001fd5b6001600160e01b031916630a85bd0160e11b14905061158d565b506001949350505050565b6060611d4682611449565b6000611d5d60408051602081019091526000815290565b90506000815111611d7d5760405180602001604052806000815250611da8565b80611d87846120f4565b604051602001611d98929190612ce9565b6040516020818303038152906040525b9392505050565b60006001600160e01b031982166380ac58cd60e01b1480611de057506001600160e01b03198216635b5e139f60e01b145b806103b457506301ffc9a760e01b6001600160e01b03198316146103b4565b6001811115611e6e5760405162461bcd60e51b815260206004820152603560248201527f455243373231456e756d657261626c653a20636f6e7365637574697665207472604482015274185b9cd9995c9cc81b9bdd081cdd5c1c1bdc9d1959605a1b60648201526084016104e8565b816001600160a01b038516611eca57611ec581600c80546000838152600d60205260408120829055600182018355919091527fdf6966c971051c3d54ec59162606531493a51404a002842f56009d7e5cf4a8c70155565b611eed565b836001600160a01b0316856001600160a01b031614611eed57611eed8582612191565b6001600160a01b038416611f0957611f048161222e565b611f2c565b846001600160a01b0316846001600160a01b031614611f2c57611f2c84826122dd565b5050505050565b6001600160a01b038216611f895760405162461bcd60e51b815260206004820181905260248201527f4552433732313a206d696e7420746f20746865207a65726f206164647265737360448201526064016104e8565b6000818152600260205260409020546001600160a01b031615611fee5760405162461bcd60e51b815260206004820152601c60248201527f4552433732313a20746f6b656e20616c7265616479206d696e7465640000000060448201526064016104e8565b611ffc600083836001611bb0565b6000818152600260205260409020546001600160a01b0316156120615760405162461bcd60e51b815260206004820152601c60248201527f4552433732313a20746f6b656e20616c7265616479206d696e7465640000000060448201526064016104e8565b6001600160a01b038216600081815260036020908152604080832080546001019055848352600290915280822080546001600160a01b0319168417905551839291907fddf252ad1be2c89b69c2b068fc378daa952ba7f163c4a11628f55a4df523b3ef908290a45050565b600060ff8216601f8111156103b457604051632cd44ac360e21b815260040160405180910390fd5b6060600061210183612321565b600101905060008167ffffffffffffffff811115612121576121216126d0565b6040519080825280601f01601f19166020018201604052801561214b576020820181803683370190505b5090508181016020015b600019016f181899199a1a9b1b9c1cb0b131b232b360811b600a86061a8153600a850494508461218457612189565b612155565b509392505050565b6000600161219e84610a7e565b6121a89190612bdd565b6000838152600b60205260409020549091508082146121fb576001600160a01b0384166000908152600a602090815260408083208584528252808320548484528184208190558352600b90915290208190555b506000918252600b602090815260408084208490556001600160a01b039094168352600a81528383209183525290812055565b600c5460009061224090600190612bdd565b6000838152600d6020526040812054600c805493945090928490811061226857612268612bb1565b9060005260206000200154905080600c838154811061228957612289612bb1565b6000918252602080832090910192909255828152600d9091526040808220849055858252812055600c8054806122c1576122c1612d96565b6001900381819060005260206000200160009055905550505050565b60006122e883610a7e565b6001600160a01b039093166000908152600a602090815260408083208684528252808320859055938252600b9052919091209190915550565b60008072184f03e93ff9f4daa797ed6e38ed64bf6a1f0160401b83106123605772184f03e93ff9f4daa797ed6e38ed64bf6a1f0160401b830492506040015b6d04ee2d6d415b85acef8100000000831061238c576d04ee2d6d415b85acef8100000000830492506020015b662386f26fc1000083106123aa57662386f26fc10000830492506010015b6305f5e10083106123c2576305f5e100830492506008015b61271083106123d657612710830492506004015b606483106123e8576064830492506002015b600a83106103b45760010192915050565b82805461240590612b29565b90600052602060002090601f016020900481019282612427576000855561246d565b82601f1061244057805160ff191683800117855561246d565b8280016001018555821561246d579182015b8281111561246d578251825591602001919060010190612452565b5061247992915061252b565b5090565b82805482825590600052602060002090810192821561246d579160200282015b8281111561246d57825182546001600160a01b0319166001600160a01b0390911617825560209092019160019091019061249d565b82805482825590600052602060002090810192821561251f579160200282015b8281111561251f578251805161250f9184916020909101906123f9565b50916020019190600101906124f2565b50612479929150612540565b5b80821115612479576000815560010161252c565b80821115612479576000612554828261255d565b50600101612540565b50805461256990612b29565b6000825580601f10612579575050565b601f0160209004906000526020600020908101906113e7919061252b565b6001600160e01b0319811681146113e757600080fd5b6000602082840312156125bf57600080fd5b8135611da881612597565b60005b838110156125e55781810151838201526020016125cd565b838111156110b65750506000910152565b6000815180845261260e8160208601602086016125ca565b601f01601f19169290920160200192915050565b602081526000611da860208301846125f6565b60006020828403121561264757600080fd5b5035919050565b80356001600160a01b038116811461266557600080fd5b919050565b6000806040838503121561267d57600080fd5b6126868361264e565b946020939093013593505050565b6000806000606084860312156126a957600080fd5b6126b28461264e565b92506126c06020850161264e565b9150604084013590509250925092565b634e487b7160e01b600052604160045260246000fd5b600067ffffffffffffffff80841115612701576127016126d0565b604051601f8501601f19908116603f01168101908282118183101715612729576127296126d0565b8160405280935085815286868601111561274257600080fd5b858560208301376000602087830101525050509392505050565b600082601f83011261276d57600080fd5b611da8838335602085016126e6565b803561ffff8116811461266557600080fd5b600080600080600060a086880312156127a657600080fd5b6127af8661264e565b9450602086013567ffffffffffffffff808211156127cc57600080fd5b6127d889838a0161275c565b955060408801359150808211156127ee57600080fd5b506127fb8882890161275c565b93505061280a6060870161277c565b91506128186080870161277c565b90509295509295909350565b60006020828403121561283657600080fd5b611da88261264e565b6000806000806080858703121561285557600080fd5b61285e8561264e565b9350602085013567ffffffffffffffff81111561287a57600080fd5b6128868782880161275c565b9350506128956040860161277c565b9396929550929360600135925050565b60ff60f81b881681526000602060e0818401526128c560e084018a6125f6565b83810360408501526128d7818a6125f6565b606085018990526001600160a01b038816608086015260a0850187905284810360c0860152855180825283870192509083019060005b818110156129295783518352928401929184019160010161290d565b50909c9b505050505050505050505050565b6000806040838503121561294e57600080fd5b6129578361264e565b91506020830135801515811461296c57600080fd5b809150509250929050565b6000806000806080858703121561298d57600080fd5b6129968561264e565b93506129a46020860161264e565b925060408501359150606085013567ffffffffffffffff8111156129c757600080fd5b8501601f810187136129d857600080fd5b6129e7878235602084016126e6565b91505092959194509250565b600081518084526020808501808196508360051b8101915082860160005b85811015612a3b578284038952612a298483516125f6565b98850198935090840190600101612a11565b5091979650505050505050565b6000602080835260018060a01b0380855116828501528185015160a06040860152612a7660c08601826125f6565b6040870151601f1987830381016060890152815180845291860193506000929091908601905b80841015612abe57845186168252938601936001939093019290860190612a9c565b506060890151955081888203016080890152612ada81876129f3565b95505050505050608084015161218960a085018261ffff169052565b60008060408385031215612b0957600080fd5b612b128361264e565b9150612b206020840161264e565b90509250929050565b600181811c90821680612b3d57607f821691505b60208210811415612b5e57634e487b7160e01b600052602260045260246000fd5b50919050565b6020808252602d908201527f4552433732313a2063616c6c6572206973206e6f7420746f6b656e206f776e6560408201526c1c881bdc88185c1c1c9bdd9959609a1b606082015260800190565b634e487b7160e01b600052603260045260246000fd5b634e487b7160e01b600052601160045260246000fd5b600082821015612bef57612bef612bc7565b500390565b6001600160a01b038316815260406020820181905260009061158d908301846125f6565b600061ffff821680612c2c57612c2c612bc7565b6000190192915050565b60008251612c488184602087016125ca565b9190910192915050565b60208082526025908201527f4552433732313a207472616e736665722066726f6d20696e636f72726563742060408201526437bbb732b960d91b606082015260800190565b60208082526032908201527f4552433732313a207472616e7366657220746f206e6f6e20455243373231526560408201527131b2b4bb32b91034b6b83632b6b2b73a32b960711b606082015260800190565b60008351612cfb8184602088016125ca565b835190830190612d0f8183602088016125ca565b01949350505050565b80516020808301519190811015612b5e5760001960209190910360031b1b16919050565b6001600160a01b0385811682528416602082015260408101839052608060608201819052600090612d6f908301846125f6565b9695505050505050565b600060208284031215612d8b57600080fd5b8151611da881612597565b634e487b7160e01b600052603160045260246000fdfea2646970667358221220bdc6b29b7bbc2be5f476d93beec8e8814c200bdc0eb565941503ee5b7fdb9eab64736f6c63430008090033",
  "linkReferences": {},
  "deployedLinkReferences": {}
}